{
  "_format": "hh-sol-artifact-1",
  "contractName": "Escrow",
  "sourceName": "contracts/Escrow.sol",
  "abi": [
    {
      "inputs": [
        {
          "internalType": "uint256",
          "name": "_escFee",
          "type": "uint256"
        }
      ],
      "stateMutability": "nonpayable",
      "type": "constructor"
    },
    {
      "anonymous": false,
      "inputs": [
        {
          "indexed": false,
          "internalType": "uint256",
          "name": "itemId",
          "type": "uint256"
        },
        {
          "indexed": false,
          "internalType": "string",
          "name": "actionType",
          "type": "string"
        },
        {
          "indexed": false,
          "internalType": "enum Escrow.Status",
          "name": "status",
          "type": "uint8"
        },
        {
          "indexed": true,
          "internalType": "address",
          "name": "executor",
          "type": "address"
        }
      ],
      "name": "Action",
      "type": "event"
    },
    {
      "inputs": [
        {
          "internalType": "uint256",
          "name": "itemId",
          "type": "uint256"
        },
        {
          "internalType": "address",
          "name": "provider",
          "type": "address"
        }
      ],
      "name": "approveRequest",
      "outputs": [
        {
          "internalType": "bool",
          "name": "",
          "type": "bool"
        }
      ],
      "stateMutability": "nonpayable",
      "type": "function"
    },
    {
      "inputs": [
        {
          "internalType": "uint256",
          "name": "itemId",
          "type": "uint256"
        },
        {
          "internalType": "bool",
          "name": "provided",
          "type": "bool"
        }
      ],
      "name": "confirmDelivery",
      "outputs": [
        {
          "internalType": "bool",
          "name": "",
          "type": "bool"
        }
      ],
      "stateMutability": "nonpayable",
      "type": "function"
    },
    {
      "inputs": [
        {
          "internalType": "string",
          "name": "purpose",
          "type": "string"
        }
      ],
      "name": "createItem",
      "outputs": [
        {
          "internalType": "bool",
          "name": "",
          "type": "bool"
        }
      ],
      "stateMutability": "payable",
      "type": "function"
    },
    {
      "inputs": [],
      "name": "escAcc",
      "outputs": [
        {
          "internalType": "address",
          "name": "",
          "type": "address"
        }
      ],
      "stateMutability": "view",
      "type": "function"
    },
    {
      "inputs": [],
      "name": "escAvailBal",
      "outputs": [
        {
          "internalType": "uint256",
          "name": "",
          "type": "uint256"
        }
      ],
      "stateMutability": "view",
      "type": "function"
    },
    {
      "inputs": [],
      "name": "escBal",
      "outputs": [
        {
          "internalType": "uint256",
          "name": "",
          "type": "uint256"
        }
      ],
      "stateMutability": "view",
      "type": "function"
    },
    {
      "inputs": [],
      "name": "escFee",
      "outputs": [
        {
          "internalType": "uint256",
          "name": "",
          "type": "uint256"
        }
      ],
      "stateMutability": "view",
      "type": "function"
    },
    {
      "inputs": [
        {
          "internalType": "uint256",
          "name": "itemId",
          "type": "uint256"
        }
      ],
      "name": "getItem",
      "outputs": [
        {
          "components": [
            {
              "internalType": "uint256",
              "name": "itemId",
              "type": "uint256"
            },
            {
              "internalType": "string",
              "name": "purpose",
              "type": "string"
            },
            {
              "internalType": "uint256",
              "name": "amount",
              "type": "uint256"
            },
            {
              "internalType": "uint256",
              "name": "timestamp",
              "type": "uint256"
            },
            {
              "internalType": "address",
              "name": "owner",
              "type": "address"
            },
            {
              "internalType": "address",
              "name": "provider",
              "type": "address"
            },
            {
              "internalType": "enum Escrow.Status",
              "name": "status",
              "type": "uint8"
            },
            {
              "internalType": "bool",
              "name": "provided",
              "type": "bool"
            },
            {
              "internalType": "bool",
              "name": "confirmed",
              "type": "bool"
            }
          ],
          "internalType": "struct Escrow.ItemStruct",
          "name": "",
          "type": "tuple"
        }
      ],
      "stateMutability": "view",
      "type": "function"
    },
    {
      "inputs": [],
      "name": "getItems",
      "outputs": [
        {
          "components": [
            {
              "internalType": "uint256",
              "name": "itemId",
              "type": "uint256"
            },
            {
              "internalType": "string",
              "name": "purpose",
              "type": "string"
            },
            {
              "internalType": "uint256",
              "name": "amount",
              "type": "uint256"
            },
            {
              "internalType": "uint256",
              "name": "timestamp",
              "type": "uint256"
            },
            {
              "internalType": "address",
              "name": "owner",
              "type": "address"
            },
            {
              "internalType": "address",
              "name": "provider",
              "type": "address"
            },
            {
              "internalType": "enum Escrow.Status",
              "name": "status",
              "type": "uint8"
            },
            {
              "internalType": "bool",
              "name": "provided",
              "type": "bool"
            },
            {
              "internalType": "bool",
              "name": "confirmed",
              "type": "bool"
            }
          ],
          "internalType": "struct Escrow.ItemStruct[]",
          "name": "props",
          "type": "tuple[]"
        }
      ],
      "stateMutability": "view",
      "type": "function"
    },
    {
      "inputs": [
        {
          "internalType": "uint256",
          "name": "",
          "type": "uint256"
        }
      ],
      "name": "isAvailable",
      "outputs": [
        {
          "internalType": "enum Escrow.Available",
          "name": "",
          "type": "uint8"
        }
      ],
      "stateMutability": "view",
      "type": "function"
    },
    {
      "inputs": [],
      "name": "myItems",
      "outputs": [
        {
          "components": [
            {
              "internalType": "uint256",
              "name": "itemId",
              "type": "uint256"
            },
            {
              "internalType": "string",
              "name": "purpose",
              "type": "string"
            },
            {
              "internalType": "uint256",
              "name": "amount",
              "type": "uint256"
            },
            {
              "internalType": "uint256",
              "name": "timestamp",
              "type": "uint256"
            },
            {
              "internalType": "address",
              "name": "owner",
              "type": "address"
            },
            {
              "internalType": "address",
              "name": "provider",
              "type": "address"
            },
            {
              "internalType": "enum Escrow.Status",
              "name": "status",
              "type": "uint8"
            },
            {
              "internalType": "bool",
              "name": "provided",
              "type": "bool"
            },
            {
              "internalType": "bool",
              "name": "confirmed",
              "type": "bool"
            }
          ],
          "internalType": "struct Escrow.ItemStruct[]",
          "name": "",
          "type": "tuple[]"
        }
      ],
      "stateMutability": "view",
      "type": "function"
    },
    {
      "inputs": [
        {
          "internalType": "uint256",
          "name": "",
          "type": "uint256"
        }
      ],
      "name": "ownerOf",
      "outputs": [
        {
          "internalType": "address",
          "name": "",
          "type": "address"
        }
      ],
      "stateMutability": "view",
      "type": "function"
    },
    {
      "inputs": [
        {
          "internalType": "uint256",
          "name": "itemId",
          "type": "uint256"
        }
      ],
      "name": "performDelievery",
      "outputs": [
        {
          "internalType": "bool",
          "name": "",
          "type": "bool"
        }
      ],
      "stateMutability": "nonpayable",
      "type": "function"
    },
    {
      "inputs": [
        {
          "internalType": "uint256",
          "name": "itemId",
          "type": "uint256"
        }
      ],
      "name": "refundItem",
      "outputs": [
        {
          "internalType": "bool",
          "name": "",
          "type": "bool"
        }
      ],
      "stateMutability": "nonpayable",
      "type": "function"
    },
    {
      "inputs": [
        {
          "internalType": "uint256",
          "name": "itemId",
          "type": "uint256"
        }
      ],
      "name": "requestItem",
      "outputs": [
        {
          "internalType": "bool",
          "name": "",
          "type": "bool"
        }
      ],
      "stateMutability": "nonpayable",
      "type": "function"
    },
    {
      "inputs": [
        {
          "internalType": "address",
          "name": "",
          "type": "address"
        },
        {
          "internalType": "uint256",
          "name": "",
          "type": "uint256"
        }
      ],
      "name": "requested",
      "outputs": [
        {
          "internalType": "bool",
          "name": "",
          "type": "bool"
        }
      ],
      "stateMutability": "view",
      "type": "function"
    },
    {
      "inputs": [],
      "name": "totalConfirmed",
      "outputs": [
        {
          "internalType": "uint256",
          "name": "",
          "type": "uint256"
        }
      ],
      "stateMutability": "view",
      "type": "function"
    },
    {
      "inputs": [],
      "name": "totalDisputed",
      "outputs": [
        {
          "internalType": "uint256",
          "name": "",
          "type": "uint256"
        }
      ],
      "stateMutability": "view",
      "type": "function"
    },
    {
      "inputs": [],
      "name": "totalItems",
      "outputs": [
        {
          "internalType": "uint256",
          "name": "",
          "type": "uint256"
        }
      ],
      "stateMutability": "view",
      "type": "function"
    },
    {
      "inputs": [
        {
          "internalType": "address",
          "name": "to",
          "type": "address"
        },
        {
          "internalType": "uint256",
          "name": "amount",
          "type": "uint256"
        }
      ],
      "name": "withdrawFund",
      "outputs": [
        {
          "internalType": "bool",
          "name": "",
          "type": "bool"
        }
      ],
      "stateMutability": "nonpayable",
      "type": "function"
    }
  ],
  "bytecode": "0x60806040526000600555600060065560006007553480156200002057600080fd5b5060405162003953380380620039538339818101604052810190620000469190620000ed565b600160008190555033600160006101000a81548173ffffffffffffffffffffffffffffffffffffffff021916908373ffffffffffffffffffffffffffffffffffffffff1602179055506000600281905550600060038190555080600481905550506200011f565b600080fd5b6000819050919050565b620000c781620000b2565b8114620000d357600080fd5b50565b600081519050620000e781620000bc565b92915050565b600060208284031215620001065762000105620000ad565b5b60006200011684828501620000d6565b91505092915050565b613824806200012f6000396000f3fe60806040526004361061011f5760003560e01c806350f18cb7116100a0578063bc045df811610064578063bc045df81461042c578063c86d9da214610469578063c9958c4d14610494578063d62a4887146104bf578063f7c8d221146104fc5761011f565b806350f18cb71461031f578063618f0ea71461034a5780636352211e146103755780636754cc28146103b25780637216f123146103ef5761011f565b80633a178d99116100e75780633a178d99146102315780633d54eebb1461026e5780634028a0f11461029e578063410d59cc146102c95780634e47368b146102f45761011f565b806304ef07811461012457806310dd7a4c1461016157806318059aad1461018c5780632799276d146101c95780633129e773146101f4575b600080fd5b34801561013057600080fd5b5061014b6004803603810190610146919061215c565b610539565b60405161015891906121ab565b60405180910390f35b34801561016d57600080fd5b506101766108d4565b60405161018391906124b3565b60405180910390f35b34801561019857600080fd5b506101b360048036038101906101ae91906124d5565b610b3e565b6040516101c091906121ab565b60405180910390f35b3480156101d557600080fd5b506101de610d6b565b6040516101eb9190612511565b60405180910390f35b34801561020057600080fd5b5061021b600480360381019061021691906124d5565b610d71565b60405161022891906125f1565b60405180910390f35b34801561023d57600080fd5b50610258600480360381019061025391906124d5565b610f6c565b604051610265919061265b565b60405180910390f35b610288600480360381019061028391906126db565b610f8c565b60405161029591906121ab565b60405180910390f35b3480156102aa57600080fd5b506102b36113ee565b6040516102c09190612511565b60405180910390f35b3480156102d557600080fd5b506102de6113f4565b6040516102eb91906124b3565b60405180910390f35b34801561030057600080fd5b5061030961167c565b6040516103169190612511565b60405180910390f35b34801561032b57600080fd5b50610334611682565b6040516103419190612511565b60405180910390f35b34801561035657600080fd5b5061035f611688565b60405161036c9190612737565b60405180910390f35b34801561038157600080fd5b5061039c600480360381019061039791906124d5565b6116ae565b6040516103a99190612737565b60405180910390f35b3480156103be57600080fd5b506103d960048036038101906103d4919061277e565b6116e1565b6040516103e691906121ab565b60405180910390f35b3480156103fb57600080fd5b50610416600480360381019061041191906124d5565b611710565b60405161042391906121ab565b60405180910390f35b34801561043857600080fd5b50610453600480360381019061044e91906127be565b611946565b60405161046091906121ab565b60405180910390f35b34801561047557600080fd5b5061047e611c44565b60405161048b9190612511565b60405180910390f35b3480156104a057600080fd5b506104a9611c4a565b6040516104b69190612511565b60405180910390f35b3480156104cb57600080fd5b506104e660048036038101906104e191906124d5565b611c50565b6040516104f391906121ab565b60405180910390f35b34801561050857600080fd5b50610523600480360381019061051e919061277e565b611e3c565b60405161053091906121ab565b60405180910390f35b6000600b600084815260200190815260200160002060009054906101000a900473ffffffffffffffffffffffffffffffffffffffff1673ffffffffffffffffffffffffffffffffffffffff163373ffffffffffffffffffffffffffffffffffffffff16146105dc576040517f08c379a00000000000000000000000000000000000000000000000000000000081526004016105d39061285b565b60405180910390fd5b6008600084815260200190815260200160002060050160159054906101000a900460ff1661063f576040517f08c379a0000000000000000000000000000000000000000000000000000000008152600401610636906128c7565b60405180910390fd5b60056006811115610653576106526122d2565b5b6008600085815260200190815260200160002060050160149054906101000a900460ff166006811115610689576106886122d2565b5b036106c9576040517f08c379a00000000000000000000000000000000000000000000000000000000081526004016106c090612959565b60405180910390fd5b8115610839576000606460045460086000878152602001908152602001600020600201546106f791906129a8565b6107019190612a19565b90506107646008600086815260200190815260200160002060050160009054906101000a900473ffffffffffffffffffffffffffffffffffffffff1682600860008881526020019081526020016000206002015461075f9190612a4a565b611f9e565b5060086000858152602001908152602001600020600201546002600082825461078d9190612a4a565b9250508190555080600360008282546107a69190612a7e565b9250508190555060016008600086815260200190815260200160002060050160166101000a81548160ff02191690831515021790555060036008600086815260200190815260200160002060050160146101000a81548160ff02191690836006811115610816576108156122d2565b5b02179055506006600081548092919061082e90612ab2565b919050555050610879565b60046008600085815260200190815260200160002060050160146101000a81548160ff02191690836006811115610873576108726122d2565b5b02179055505b3373ffffffffffffffffffffffffffffffffffffffff167f23ad0062ad47da0f27f5c07751751e4b60afc16bf6fe03a24266a01ec48979318460046040516108c2929190612b55565b60405180910390a26001905092915050565b6060600960003373ffffffffffffffffffffffffffffffffffffffff1673ffffffffffffffffffffffffffffffffffffffff168152602001908152602001600020805480602002602001604051908101604052809291908181526020016000905b82821015610b355783829060005260206000209060060201604051806101200160405290816000820154815260200160018201805461097390612bc0565b80601f016020809104026020016040519081016040528092919081815260200182805461099f90612bc0565b80156109ec5780601f106109c1576101008083540402835291602001916109ec565b820191906000526020600020905b8154815290600101906020018083116109cf57829003601f168201915b5050505050815260200160028201548152602001600382015481526020016004820160009054906101000a900473ffffffffffffffffffffffffffffffffffffffff1673ffffffffffffffffffffffffffffffffffffffff1673ffffffffffffffffffffffffffffffffffffffff1681526020016005820160009054906101000a900473ffffffffffffffffffffffffffffffffffffffff1673ffffffffffffffffffffffffffffffffffffffff1673ffffffffffffffffffffffffffffffffffffffff1681526020016005820160149054906101000a900460ff166006811115610ada57610ad96122d2565b5b6006811115610aec57610aeb6122d2565b5b81526020016005820160159054906101000a900460ff161515151581526020016005820160169054906101000a900460ff16151515158152505081526020019060010190610935565b50505050905090565b6000600160009054906101000a900473ffffffffffffffffffffffffffffffffffffffff1673ffffffffffffffffffffffffffffffffffffffff163373ffffffffffffffffffffffffffffffffffffffff1614610bd0576040517f08c379a0000000000000000000000000000000000000000000000000000000008152600401610bc790612c3d565b60405180910390fd5b6008600083815260200190815260200160002060050160169054906101000a900460ff1615610c34576040517f08c379a0000000000000000000000000000000000000000000000000000000008152600401610c2b90612ca9565b60405180910390fd5b610c8a6008600084815260200190815260200160002060040160009054906101000a900473ffffffffffffffffffffffffffffffffffffffff166008600085815260200190815260200160002060020154611f9e565b50600860008381526020019081526020016000206002015460026000828254610cb39190612a4a565b9250508190555060056008600084815260200190815260200160002060050160146101000a81548160ff02191690836006811115610cf457610cf36122d2565b5b021790555060076000815480929190610d0c90612ab2565b91905055503373ffffffffffffffffffffffffffffffffffffffff167f23ad0062ad47da0f27f5c07751751e4b60afc16bf6fe03a24266a01ec4897931836005604051610d5a929190612d15565b60405180910390a260019050919050565b60055481565b610d79612056565b600860008381526020019081526020016000206040518061012001604052908160008201548152602001600182018054610db290612bc0565b80601f0160208091040260200160405190810160405280929190818152602001828054610dde90612bc0565b8015610e2b5780601f10610e0057610100808354040283529160200191610e2b565b820191906000526020600020905b815481529060010190602001808311610e0e57829003601f168201915b5050505050815260200160028201548152602001600382015481526020016004820160009054906101000a900473ffffffffffffffffffffffffffffffffffffffff1673ffffffffffffffffffffffffffffffffffffffff1673ffffffffffffffffffffffffffffffffffffffff1681526020016005820160009054906101000a900473ffffffffffffffffffffffffffffffffffffffff1673ffffffffffffffffffffffffffffffffffffffff1673ffffffffffffffffffffffffffffffffffffffff1681526020016005820160149054906101000a900460ff166006811115610f1957610f186122d2565b5b6006811115610f2b57610f2a6122d2565b5b81526020016005820160159054906101000a900460ff161515151581526020016005820160169054906101000a900460ff1615151515815250509050919050565b600c6020528060005260406000206000915054906101000a900460ff1681565b6000808383905011610fd3576040517f08c379a0000000000000000000000000000000000000000000000000000000008152600401610fca90612d9d565b60405180910390fd5b60003411611016576040517f08c379a000000000000000000000000000000000000000000000000000000000815260040161100d90612e09565b60405180910390fd5b60006005600081548092919061102b90612ab2565b9190505590506000600860008381526020019081526020016000209050818160000181905550848482600101918261106492919061300f565b50348160020181905550428160030181905550338160040160006101000a81548173ffffffffffffffffffffffffffffffffffffffff021916908373ffffffffffffffffffffffffffffffffffffffff16021790555060008160050160146101000a81548160ff021916908360068111156110e2576110e16122d2565b5b0217905550600960003373ffffffffffffffffffffffffffffffffffffffff1673ffffffffffffffffffffffffffffffffffffffff168152602001908152602001600020819080600181540180825580915050600190039060005260206000209060060201600090919091909150600082015481600001556001820181600101908161116e91906130f5565b5060028201548160020155600382015481600301556004820160009054906101000a900473ffffffffffffffffffffffffffffffffffffffff168160040160006101000a81548173ffffffffffffffffffffffffffffffffffffffff021916908373ffffffffffffffffffffffffffffffffffffffff1602179055506005820160009054906101000a900473ffffffffffffffffffffffffffffffffffffffff168160050160006101000a81548173ffffffffffffffffffffffffffffffffffffffff021916908373ffffffffffffffffffffffffffffffffffffffff1602179055506005820160149054906101000a900460ff168160050160146101000a81548160ff02191690836006811115611289576112886122d2565b5b02179055506005820160159054906101000a900460ff168160050160156101000a81548160ff0219169083151502179055506005820160169054906101000a900460ff168160050160166101000a81548160ff021916908315150217905550505033600b600084815260200190815260200160002060006101000a81548173ffffffffffffffffffffffffffffffffffffffff021916908373ffffffffffffffffffffffffffffffffffffffff1602179055506001600c600084815260200190815260200160002060006101000a81548160ff02191690836001811115611373576113726122d2565b5b0217905550346002600082825461138a9190612a7e565b925050819055503373ffffffffffffffffffffffffffffffffffffffff167f23ad0062ad47da0f27f5c07751751e4b60afc16bf6fe03a24266a01ec48979318360006040516113da929190613229565b60405180910390a260019250505092915050565b60065481565b606060055467ffffffffffffffff81111561141257611411612e34565b5b60405190808252806020026020018201604052801561144b57816020015b611438612056565b8152602001906001900390816114305790505b50905060005b6005548110156116785760086000828152602001908152602001600020604051806101200160405290816000820154815260200160018201805461149490612bc0565b80601f01602080910402602001604051908101604052809291908181526020018280546114c090612bc0565b801561150d5780601f106114e25761010080835404028352916020019161150d565b820191906000526020600020905b8154815290600101906020018083116114f057829003601f168201915b5050505050815260200160028201548152602001600382015481526020016004820160009054906101000a900473ffffffffffffffffffffffffffffffffffffffff1673ffffffffffffffffffffffffffffffffffffffff1673ffffffffffffffffffffffffffffffffffffffff1681526020016005820160009054906101000a900473ffffffffffffffffffffffffffffffffffffffff1673ffffffffffffffffffffffffffffffffffffffff1673ffffffffffffffffffffffffffffffffffffffff1681526020016005820160149054906101000a900460ff1660068111156115fb576115fa6122d2565b5b600681111561160d5761160c6122d2565b5b81526020016005820160159054906101000a900460ff161515151581526020016005820160169054906101000a900460ff16151515158152505082828151811061165a57611659613265565b5b6020026020010181905250808061167090612ab2565b915050611451565b5090565b60045481565b60035481565b600160009054906101000a900473ffffffffffffffffffffffffffffffffffffffff1681565b600b6020528060005260406000206000915054906101000a900473ffffffffffffffffffffffffffffffffffffffff1681565b600a6020528160005260406000206020528060005260406000206000915091509054906101000a900460ff1681565b60006008600083815260200190815260200160002060050160009054906101000a900473ffffffffffffffffffffffffffffffffffffffff1673ffffffffffffffffffffffffffffffffffffffff163373ffffffffffffffffffffffffffffffffffffffff16146117b6576040517f08c379a00000000000000000000000000000000000000000000000000000000081526004016117ad906132e0565b60405180910390fd5b6008600083815260200190815260200160002060050160159054906101000a900460ff161561181a576040517f08c379a000000000000000000000000000000000000000000000000000000000815260040161181190612ca9565b60405180910390fd5b6008600083815260200190815260200160002060050160169054906101000a900460ff161561187e576040517f08c379a00000000000000000000000000000000000000000000000000000000081526004016118759061334c565b60405180910390fd5b60016008600084815260200190815260200160002060050160156101000a81548160ff02191690831515021790555060026008600084815260200190815260200160002060050160146101000a81548160ff021916908360068111156118e7576118e66122d2565b5b02179055503373ffffffffffffffffffffffffffffffffffffffff167f23ad0062ad47da0f27f5c07751751e4b60afc16bf6fe03a24266a01ec48979318360026040516119359291906133b8565b60405180910390a260019050919050565b6000600b600084815260200190815260200160002060009054906101000a900473ffffffffffffffffffffffffffffffffffffffff1673ffffffffffffffffffffffffffffffffffffffff163373ffffffffffffffffffffffffffffffffffffffff16146119e9576040517f08c379a00000000000000000000000000000000000000000000000000000000081526004016119e09061285b565b60405180910390fd5b6001808111156119fc576119fb6122d2565b5b600c600085815260200190815260200160002060009054906101000a900460ff166001811115611a2f57611a2e6122d2565b5b14611a6f576040517f08c379a0000000000000000000000000000000000000000000000000000000008152600401611a6690613440565b60405180910390fd5b600a60008373ffffffffffffffffffffffffffffffffffffffff1673ffffffffffffffffffffffffffffffffffffffff168152602001908152602001600020600084815260200190815260200160002060009054906101000a900460ff16611b0c576040517f08c379a0000000000000000000000000000000000000000000000000000000008152600401611b03906134ac565b60405180910390fd5b60006001811115611b2057611b1f6122d2565b5b600c600085815260200190815260200160002060009054906101000a900460ff166001811115611b5357611b526122d2565b5b505060016008600085815260200190815260200160002060050160146101000a81548160ff02191690836006811115611b8f57611b8e6122d2565b5b0217905550816008600085815260200190815260200160002060050160006101000a81548173ffffffffffffffffffffffffffffffffffffffff021916908373ffffffffffffffffffffffffffffffffffffffff1602179055503373ffffffffffffffffffffffffffffffffffffffff167f23ad0062ad47da0f27f5c07751751e4b60afc16bf6fe03a24266a01ec4897931846001604051611c32929190613518565b60405180910390a26001905092915050565b60025481565b60075481565b6000600b600083815260200190815260200160002060009054906101000a900473ffffffffffffffffffffffffffffffffffffffff1673ffffffffffffffffffffffffffffffffffffffff163373ffffffffffffffffffffffffffffffffffffffff1603611cf3576040517f08c379a0000000000000000000000000000000000000000000000000000000008152600401611cea906135a0565b60405180910390fd5b600180811115611d0657611d056122d2565b5b600c600084815260200190815260200160002060009054906101000a900460ff166001811115611d3957611d386122d2565b5b14611d79576040517f08c379a0000000000000000000000000000000000000000000000000000000008152600401611d7090613440565b60405180910390fd5b6001600a60003373ffffffffffffffffffffffffffffffffffffffff1673ffffffffffffffffffffffffffffffffffffffff168152602001908152602001600020600084815260200190815260200160002060006101000a81548160ff0219169083151502179055503373ffffffffffffffffffffffffffffffffffffffff167f23ad0062ad47da0f27f5c07751751e4b60afc16bf6fe03a24266a01ec4897931836000604051611e2b92919061360c565b60405180910390a260019050919050565b6000600160009054906101000a900473ffffffffffffffffffffffffffffffffffffffff1673ffffffffffffffffffffffffffffffffffffffff163373ffffffffffffffffffffffffffffffffffffffff1614611ece576040517f08c379a0000000000000000000000000000000000000000000000000000000008152600401611ec590612c3d565b60405180910390fd5b600082118015611ee057506003548211155b611f1f576040517f08c379a0000000000000000000000000000000000000000000000000000000008152600401611f1690613694565b60405180910390fd5b611f298383611f9e565b508160036000828254611f3c9190612a4a565b925050819055503373ffffffffffffffffffffffffffffffffffffffff167f23ad0062ad47da0f27f5c07751751e4b60afc16bf6fe03a24266a01ec4897931426006604051611f8c929190613700565b60405180910390a26001905092915050565b6000808373ffffffffffffffffffffffffffffffffffffffff1683604051611fc59061376d565b60006040518083038185875af1925050503d8060008114612002576040519150601f19603f3d011682016040523d82523d6000602084013e612007565b606091505b505090508061204b576040517f08c379a0000000000000000000000000000000000000000000000000000000008152600401612042906137ce565b60405180910390fd5b600191505092915050565b60405180610120016040528060008152602001606081526020016000815260200160008152602001600073ffffffffffffffffffffffffffffffffffffffff168152602001600073ffffffffffffffffffffffffffffffffffffffff168152602001600060068111156120cc576120cb6122d2565b5b81526020016000151581526020016000151581525090565b600080fd5b600080fd5b6000819050919050565b612101816120ee565b811461210c57600080fd5b50565b60008135905061211e816120f8565b92915050565b60008115159050919050565b61213981612124565b811461214457600080fd5b50565b60008135905061215681612130565b92915050565b60008060408385031215612173576121726120e4565b5b60006121818582860161210f565b925050602061219285828601612147565b9150509250929050565b6121a581612124565b82525050565b60006020820190506121c0600083018461219c565b92915050565b600081519050919050565b600082825260208201905092915050565b6000819050602082019050919050565b6121fb816120ee565b82525050565b600081519050919050565b600082825260208201905092915050565b60005b8381101561223b578082015181840152602081019050612220565b60008484015250505050565b6000601f19601f8301169050919050565b600061226382612201565b61226d818561220c565b935061227d81856020860161221d565b61228681612247565b840191505092915050565b600073ffffffffffffffffffffffffffffffffffffffff82169050919050565b60006122bc82612291565b9050919050565b6122cc816122b1565b82525050565b7f4e487b7100000000000000000000000000000000000000000000000000000000600052602160045260246000fd5b60078110612312576123116122d2565b5b50565b600081905061232382612301565b919050565b600061233382612315565b9050919050565b61234381612328565b82525050565b61235281612124565b82525050565b60006101208301600083015161237160008601826121f2565b50602083015184820360208601526123898282612258565b915050604083015161239e60408601826121f2565b5060608301516123b160608601826121f2565b5060808301516123c460808601826122c3565b5060a08301516123d760a08601826122c3565b5060c08301516123ea60c086018261233a565b5060e08301516123fd60e0860182612349565b50610100830151612412610100860182612349565b508091505092915050565b60006124298383612358565b905092915050565b6000602082019050919050565b6000612449826121c6565b61245381856121d1565b935083602082028501612465856121e2565b8060005b858110156124a15784840389528151612482858261241d565b945061248d83612431565b925060208a01995050600181019050612469565b50829750879550505050505092915050565b600060208201905081810360008301526124cd818461243e565b905092915050565b6000602082840312156124eb576124ea6120e4565b5b60006124f98482850161210f565b91505092915050565b61250b816120ee565b82525050565b60006020820190506125266000830184612502565b92915050565b60006101208301600083015161254560008601826121f2565b506020830151848203602086015261255d8282612258565b915050604083015161257260408601826121f2565b50606083015161258560608601826121f2565b50608083015161259860808601826122c3565b5060a08301516125ab60a08601826122c3565b5060c08301516125be60c086018261233a565b5060e08301516125d160e0860182612349565b506101008301516125e6610100860182612349565b508091505092915050565b6000602082019050818103600083015261260b818461252c565b905092915050565b60028110612624576126236122d2565b5b50565b600081905061263582612613565b919050565b600061264582612627565b9050919050565b6126558161263a565b82525050565b6000602082019050612670600083018461264c565b92915050565b600080fd5b600080fd5b600080fd5b60008083601f84011261269b5761269a612676565b5b8235905067ffffffffffffffff8111156126b8576126b761267b565b5b6020830191508360018202830111156126d4576126d3612680565b5b9250929050565b600080602083850312156126f2576126f16120e4565b5b600083013567ffffffffffffffff8111156127105761270f6120e9565b5b61271c85828601612685565b92509250509250929050565b612731816122b1565b82525050565b600060208201905061274c6000830184612728565b92915050565b61275b816122b1565b811461276657600080fd5b50565b60008135905061277881612752565b92915050565b60008060408385031215612795576127946120e4565b5b60006127a385828601612769565b92505060206127b48582860161210f565b9150509250929050565b600080604083850312156127d5576127d46120e4565b5b60006127e38582860161210f565b92505060206127f485828601612769565b9150509250929050565b600082825260208201905092915050565b7f4f6e6c79206f776e657220616c6c6f7765640000000000000000000000000000600082015250565b60006128456012836127fe565b91506128508261280f565b602082019050919050565b6000602082019050818103600083015261287481612838565b9050919050565b7f53657276696365206e6f742070726f7669646564000000000000000000000000600082015250565b60006128b16014836127fe565b91506128bc8261287b565b602082019050919050565b600060208201905081810360008301526128e0816128a4565b9050919050565b7f416c726561647920726566756e6465642c206372656174652061206e6577204960008201527f74656d0000000000000000000000000000000000000000000000000000000000602082015250565b60006129436023836127fe565b915061294e826128e7565b604082019050919050565b6000602082019050818103600083015261297281612936565b9050919050565b7f4e487b7100000000000000000000000000000000000000000000000000000000600052601160045260246000fd5b60006129b3826120ee565b91506129be836120ee565b92508282026129cc816120ee565b915082820484148315176129e3576129e2612979565b5b5092915050565b7f4e487b7100000000000000000000000000000000000000000000000000000000600052601260045260246000fd5b6000612a24826120ee565b9150612a2f836120ee565b925082612a3f57612a3e6129ea565b5b828204905092915050565b6000612a55826120ee565b9150612a60836120ee565b9250828203905081811115612a7857612a77612979565b5b92915050565b6000612a89826120ee565b9150612a94836120ee565b9250828201905080821115612aac57612aab612979565b5b92915050565b6000612abd826120ee565b91507fffffffffffffffffffffffffffffffffffffffffffffffffffffffffffffffff8203612aef57612aee612979565b5b600182019050919050565b7f4449535055545445440000000000000000000000000000000000000000000000600082015250565b6000612b306009836127fe565b9150612b3b82612afa565b602082019050919050565b612b4f81612328565b82525050565b6000606082019050612b6a6000830185612502565b8181036020830152612b7b81612b23565b9050612b8a6040830184612b46565b9392505050565b7f4e487b7100000000000000000000000000000000000000000000000000000000600052602260045260246000fd5b60006002820490506001821680612bd857607f821691505b602082108103612beb57612bea612b91565b5b50919050565b7f4f6e6c7920457363726f7720616c6c6f77656400000000000000000000000000600082015250565b6000612c276013836127fe565b9150612c3282612bf1565b602082019050919050565b60006020820190508181036000830152612c5681612c1a565b9050919050565b7f5365727669636520616c72656164792070726f76696465640000000000000000600082015250565b6000612c936018836127fe565b9150612c9e82612c5d565b602082019050919050565b60006020820190508181036000830152612cc281612c86565b9050919050565b7f524546554e444544000000000000000000000000000000000000000000000000600082015250565b6000612cff6008836127fe565b9150612d0a82612cc9565b602082019050919050565b6000606082019050612d2a6000830185612502565b8181036020830152612d3b81612cf2565b9050612d4a6040830184612b46565b9392505050565b7f507572706f73652063616e6e6f7420626520656d707479000000000000000000600082015250565b6000612d876017836127fe565b9150612d9282612d51565b602082019050919050565b60006020820190508181036000830152612db681612d7a565b9050919050565b7f4974656d2063616e6e6f74206265207a65726f20657468657273000000000000600082015250565b6000612df3601a836127fe565b9150612dfe82612dbd565b602082019050919050565b60006020820190508181036000830152612e2281612de6565b9050919050565b600082905092915050565b7f4e487b7100000000000000000000000000000000000000000000000000000000600052604160045260246000fd5b60008190508160005260206000209050919050565b60006020601f8301049050919050565b600082821b905092915050565b600060088302612ec57fffffffffffffffffffffffffffffffffffffffffffffffffffffffffffffffff82612e88565b612ecf8683612e88565b95508019841693508086168417925050509392505050565b6000819050919050565b6000612f0c612f07612f02846120ee565b612ee7565b6120ee565b9050919050565b6000819050919050565b612f2683612ef1565b612f3a612f3282612f13565b848454612e95565b825550505050565b600090565b612f4f612f42565b612f5a818484612f1d565b505050565b5b81811015612f7e57612f73600082612f47565b600181019050612f60565b5050565b601f821115612fc357612f9481612e63565b612f9d84612e78565b81016020851015612fac578190505b612fc0612fb885612e78565b830182612f5f565b50505b505050565b600082821c905092915050565b6000612fe660001984600802612fc8565b1980831691505092915050565b6000612fff8383612fd5565b9150826002028217905092915050565b6130198383612e29565b67ffffffffffffffff81111561303257613031612e34565b5b61303c8254612bc0565b613047828285612f82565b6000601f8311600181146130765760008415613064578287013590505b61306e8582612ff3565b8655506130d6565b601f19841661308486612e63565b60005b828110156130ac57848901358255600182019150602085019450602081019050613087565b868310156130c957848901356130c5601f891682612fd5565b8355505b6001600288020188555050505b50505050505050565b6000815490506130ee81612bc0565b9050919050565b8181036131035750506131db565b61310c826130df565b67ffffffffffffffff81111561312557613124612e34565b5b61312f8254612bc0565b61313a828285612f82565b6000601f8311600181146131695760008415613157578287015490505b6131618582612ff3565b8655506131d4565b601f19841661317787612e63565b965061318286612e63565b60005b828110156131aa57848901548255600182019150600185019450602081019050613185565b868310156131c757848901546131c3601f891682612fd5565b8355505b6001600288020188555050505b5050505050505b565b7f4954454d20435245415445440000000000000000000000000000000000000000600082015250565b6000613213600c836127fe565b915061321e826131dd565b602082019050919050565b600060608201905061323e6000830185612502565b818103602083015261324f81613206565b905061325e6040830184612b46565b9392505050565b7f4e487b7100000000000000000000000000000000000000000000000000000000600052603260045260246000fd5b7f53657276696365206e6f74206177617264656420746f20796f75000000000000600082015250565b60006132ca601a836127fe565b91506132d582613294565b602082019050919050565b600060208201905081810360008301526132f9816132bd565b9050919050565b7f5365727669636520616c726561647920636f6e6669726d656400000000000000600082015250565b60006133366019836127fe565b915061334182613300565b602082019050919050565b6000602082019050818103600083015261336581613329565b9050919050565b7f44454c495645525920494e544941544544000000000000000000000000000000600082015250565b60006133a26011836127fe565b91506133ad8261336c565b602082019050919050565b60006060820190506133cd6000830185612502565b81810360208301526133de81613395565b90506133ed6040830184612b46565b9392505050565b7f4974656d206e6f7420617661696c61626c650000000000000000000000000000600082015250565b600061342a6012836127fe565b9150613435826133f4565b602082019050919050565b600060208201905081810360008301526134598161341d565b9050919050565b7f50726f7669646572206e6f74206f6e20746865206c6973740000000000000000600082015250565b60006134966018836127fe565b91506134a182613460565b602082019050919050565b600060208201905081810360008301526134c581613489565b9050919050565b7f415050524f564544000000000000000000000000000000000000000000000000600082015250565b60006135026008836127fe565b915061350d826134cc565b602082019050919050565b600060608201905061352d6000830185612502565b818103602083015261353e816134f5565b905061354d6040830184612b46565b9392505050565b7f4f776e6572206e6f7420616c6c6f776564000000000000000000000000000000600082015250565b600061358a6011836127fe565b915061359582613554565b602082019050919050565b600060208201905081810360008301526135b98161357d565b9050919050565b7f5245515545535445440000000000000000000000000000000000000000000000600082015250565b60006135f66009836127fe565b9150613601826135c0565b602082019050919050565b60006060820190506136216000830185612502565b8181036020830152613632816135e9565b90506136416040830184612b46565b9392505050565b7f5a65726f207769746864726177616c206e6f7420616c6c6f7765640000000000600082015250565b600061367e601b836127fe565b915061368982613648565b602082019050919050565b600060208201905081810360008301526136ad81613671565b9050919050565b7f5749544844524157454400000000000000000000000000000000000000000000600082015250565b60006136ea600a836127fe565b91506136f5826136b4565b602082019050919050565b60006060820190506137156000830185612502565b8181036020830152613726816136dd565b90506137356040830184612b46565b9392505050565b600081905092915050565b50565b600061375760008361373c565b915061376282613747565b600082019050919050565b60006137788261374a565b9150819050919050565b7f5061796d656e74206661696c6564000000000000000000000000000000000000600082015250565b60006137b8600e836127fe565b91506137c382613782565b602082019050919050565b600060208201905081810360008301526137e7816137ab565b905091905056fea2646970667358221220b9e5ce94445ada769c65b6f42a3addf9784f7879a4b2404990aff2f763e4a30764736f6c63430008130033",
  "linkReferences": {},
  "deployedLinkReferences": {}
}